{
  "_format": "hh-sol-artifact-1",
  "contractName": "Poketoken",
  "sourceName": "contracts/Poketoken.sol",
  "abi": [
    {
      "inputs": [],
      "stateMutability": "nonpayable",
      "type": "constructor"
    },
    {
      "anonymous": false,
      "inputs": [
        {
          "indexed": true,
          "internalType": "address",
          "name": "owner",
          "type": "address"
        },
        {
          "indexed": true,
          "internalType": "address",
          "name": "approved",
          "type": "address"
        },
        {
          "indexed": true,
          "internalType": "uint256",
          "name": "tokenId",
          "type": "uint256"
        }
      ],
      "name": "Approval",
      "type": "event"
    },
    {
      "anonymous": false,
      "inputs": [
        {
          "indexed": true,
          "internalType": "address",
          "name": "owner",
          "type": "address"
        },
        {
          "indexed": true,
          "internalType": "address",
          "name": "operator",
          "type": "address"
        },
        {
          "indexed": false,
          "internalType": "bool",
          "name": "approved",
          "type": "bool"
        }
      ],
      "name": "ApprovalForAll",
      "type": "event"
    },
    {
      "anonymous": false,
      "inputs": [
        {
          "indexed": true,
          "internalType": "address",
          "name": "previousOwner",
          "type": "address"
        },
        {
          "indexed": true,
          "internalType": "address",
          "name": "newOwner",
          "type": "address"
        }
      ],
      "name": "OwnershipTransferred",
      "type": "event"
    },
    {
      "anonymous": false,
      "inputs": [
        {
          "indexed": true,
          "internalType": "address",
          "name": "from",
          "type": "address"
        },
        {
          "indexed": true,
          "internalType": "address",
          "name": "to",
          "type": "address"
        },
        {
          "indexed": true,
          "internalType": "uint256",
          "name": "tokenId",
          "type": "uint256"
        }
      ],
      "name": "Transfer",
      "type": "event"
    },
    {
      "inputs": [
        {
          "internalType": "uint128",
          "name": "price",
          "type": "uint128"
        },
        {
          "internalType": "uint256",
          "name": "tokenId",
          "type": "uint256"
        }
      ],
      "name": "addForSale",
      "outputs": [],
      "stateMutability": "payable",
      "type": "function"
    },
    {
      "inputs": [
        {
          "internalType": "address",
          "name": "to",
          "type": "address"
        },
        {
          "internalType": "uint256",
          "name": "tokenId",
          "type": "uint256"
        }
      ],
      "name": "approve",
      "outputs": [],
      "stateMutability": "nonpayable",
      "type": "function"
    },
    {
      "inputs": [
        {
          "internalType": "address",
          "name": "owner",
          "type": "address"
        }
      ],
      "name": "balanceOf",
      "outputs": [
        {
          "internalType": "uint256",
          "name": "",
          "type": "uint256"
        }
      ],
      "stateMutability": "view",
      "type": "function"
    },
    {
      "inputs": [
        {
          "internalType": "uint256",
          "name": "tokenId",
          "type": "uint256"
        }
      ],
      "name": "buyFromSale",
      "outputs": [],
      "stateMutability": "payable",
      "type": "function"
    },
    {
      "inputs": [
        {
          "internalType": "uint256",
          "name": "tokenId",
          "type": "uint256"
        }
      ],
      "name": "cancelSale",
      "outputs": [],
      "stateMutability": "nonpayable",
      "type": "function"
    },
    {
      "inputs": [],
      "name": "createPokemon",
      "outputs": [
        {
          "internalType": "uint256",
          "name": "",
          "type": "uint256"
        }
      ],
      "stateMutability": "payable",
      "type": "function"
    },
    {
      "inputs": [
        {
          "internalType": "uint256",
          "name": "tokenId",
          "type": "uint256"
        }
      ],
      "name": "getApproved",
      "outputs": [
        {
          "internalType": "address",
          "name": "",
          "type": "address"
        }
      ],
      "stateMutability": "view",
      "type": "function"
    },
    {
      "inputs": [
        {
          "internalType": "uint256",
          "name": "tokenId",
          "type": "uint256"
        }
      ],
      "name": "getForSale",
      "outputs": [
        {
          "components": [
            {
              "internalType": "address payable",
              "name": "owner",
              "type": "address"
            },
            {
              "internalType": "uint128",
              "name": "price",
              "type": "uint128"
            }
          ],
          "internalType": "struct Poketoken.ForSale",
          "name": "",
          "type": "tuple"
        }
      ],
      "stateMutability": "view",
      "type": "function"
    },
    {
      "inputs": [
        {
          "internalType": "address",
          "name": "owner",
          "type": "address"
        },
        {
          "internalType": "address",
          "name": "operator",
          "type": "address"
        }
      ],
      "name": "isApprovedForAll",
      "outputs": [
        {
          "internalType": "bool",
          "name": "",
          "type": "bool"
        }
      ],
      "stateMutability": "view",
      "type": "function"
    },
    {
      "inputs": [],
      "name": "listFromSale",
      "outputs": [
        {
          "internalType": "uint256[]",
          "name": "",
          "type": "uint256[]"
        }
      ],
      "stateMutability": "view",
      "type": "function"
    },
    {
      "inputs": [
        {
          "internalType": "address",
          "name": "owner",
          "type": "address"
        }
      ],
      "name": "mintPokemon",
      "outputs": [
        {
          "internalType": "uint256",
          "name": "",
          "type": "uint256"
        }
      ],
      "stateMutability": "nonpayable",
      "type": "function"
    },
    {
      "inputs": [],
      "name": "name",
      "outputs": [
        {
          "internalType": "string",
          "name": "",
          "type": "string"
        }
      ],
      "stateMutability": "view",
      "type": "function"
    },
    {
      "inputs": [],
      "name": "owner",
      "outputs": [
        {
          "internalType": "address",
          "name": "",
          "type": "address"
        }
      ],
      "stateMutability": "view",
      "type": "function"
    },
    {
      "inputs": [
        {
          "internalType": "uint256",
          "name": "tokenId",
          "type": "uint256"
        }
      ],
      "name": "ownerOf",
      "outputs": [
        {
          "internalType": "address",
          "name": "",
          "type": "address"
        }
      ],
      "stateMutability": "view",
      "type": "function"
    },
    {
      "inputs": [],
      "name": "renounceOwnership",
      "outputs": [],
      "stateMutability": "nonpayable",
      "type": "function"
    },
    {
      "inputs": [
        {
          "internalType": "address",
          "name": "from",
          "type": "address"
        },
        {
          "internalType": "address",
          "name": "to",
          "type": "address"
        },
        {
          "internalType": "uint256",
          "name": "tokenId",
          "type": "uint256"
        }
      ],
      "name": "safeTransferFrom",
      "outputs": [],
      "stateMutability": "nonpayable",
      "type": "function"
    },
    {
      "inputs": [
        {
          "internalType": "address",
          "name": "from",
          "type": "address"
        },
        {
          "internalType": "address",
          "name": "to",
          "type": "address"
        },
        {
          "internalType": "uint256",
          "name": "tokenId",
          "type": "uint256"
        },
        {
          "internalType": "bytes",
          "name": "_data",
          "type": "bytes"
        }
      ],
      "name": "safeTransferFrom",
      "outputs": [],
      "stateMutability": "nonpayable",
      "type": "function"
    },
    {
      "inputs": [
        {
          "internalType": "address",
          "name": "operator",
          "type": "address"
        },
        {
          "internalType": "bool",
          "name": "approved",
          "type": "bool"
        }
      ],
      "name": "setApprovalForAll",
      "outputs": [],
      "stateMutability": "nonpayable",
      "type": "function"
    },
    {
      "inputs": [
        {
          "internalType": "uint256",
          "name": "tokenId",
          "type": "uint256"
        },
        {
          "internalType": "string",
          "name": "metadataURI",
          "type": "string"
        }
      ],
      "name": "setPokemonURI",
      "outputs": [],
      "stateMutability": "nonpayable",
      "type": "function"
    },
    {
      "inputs": [
        {
          "internalType": "bytes4",
          "name": "interfaceId",
          "type": "bytes4"
        }
      ],
      "name": "supportsInterface",
      "outputs": [
        {
          "internalType": "bool",
          "name": "",
          "type": "bool"
        }
      ],
      "stateMutability": "view",
      "type": "function"
    },
    {
      "inputs": [],
      "name": "symbol",
      "outputs": [
        {
          "internalType": "string",
          "name": "",
          "type": "string"
        }
      ],
      "stateMutability": "view",
      "type": "function"
    },
    {
      "inputs": [
        {
          "internalType": "uint256",
          "name": "index",
          "type": "uint256"
        }
      ],
      "name": "tokenByIndex",
      "outputs": [
        {
          "internalType": "uint256",
          "name": "",
          "type": "uint256"
        }
      ],
      "stateMutability": "view",
      "type": "function"
    },
    {
      "inputs": [
        {
          "internalType": "address",
          "name": "owner",
          "type": "address"
        },
        {
          "internalType": "uint256",
          "name": "index",
          "type": "uint256"
        }
      ],
      "name": "tokenOfOwnerByIndex",
      "outputs": [
        {
          "internalType": "uint256",
          "name": "",
          "type": "uint256"
        }
      ],
      "stateMutability": "view",
      "type": "function"
    },
    {
      "inputs": [
        {
          "internalType": "uint256",
          "name": "tokenId",
          "type": "uint256"
        }
      ],
      "name": "tokenURI",
      "outputs": [
        {
          "internalType": "string",
          "name": "",
          "type": "string"
        }
      ],
      "stateMutability": "view",
      "type": "function"
    },
    {
      "inputs": [
        {
          "internalType": "address",
          "name": "owner",
          "type": "address"
        }
      ],
      "name": "tokensOfOwner",
      "outputs": [
        {
          "internalType": "uint256[]",
          "name": "",
          "type": "uint256[]"
        }
      ],
      "stateMutability": "view",
      "type": "function"
    },
    {
      "inputs": [],
      "name": "totalSupply",
      "outputs": [
        {
          "internalType": "uint256",
          "name": "",
          "type": "uint256"
        }
      ],
      "stateMutability": "view",
      "type": "function"
    },
    {
      "inputs": [
        {
          "internalType": "address",
          "name": "from",
          "type": "address"
        },
        {
          "internalType": "address",
          "name": "to",
          "type": "address"
        },
        {
          "internalType": "uint256",
          "name": "tokenId",
          "type": "uint256"
        }
      ],
      "name": "transferFrom",
      "outputs": [],
      "stateMutability": "nonpayable",
      "type": "function"
    },
    {
      "inputs": [
        {
          "internalType": "address",
          "name": "newOwner",
          "type": "address"
        }
      ],
      "name": "transferOwnership",
      "outputs": [],
      "stateMutability": "nonpayable",
      "type": "function"
    }
  ],
  "bytecode": "0x60806040523480156200001157600080fd5b506040518060400160405280600981526020017f506f6b65746f6b656e00000000000000000000000000000000000000000000008152506040518060400160405280600181526020017f500000000000000000000000000000000000000000000000000000000000000081525081600090805190602001906200009692919062000171565b508060019080519060200190620000af92919062000171565b5050506000620000c46200016960201b60201c565b905080600b60006101000a81548173ffffffffffffffffffffffffffffffffffffffff021916908373ffffffffffffffffffffffffffffffffffffffff1602179055508073ffffffffffffffffffffffffffffffffffffffff16600073ffffffffffffffffffffffffffffffffffffffff167f8be0079c531659141344cd1fd0a4f28419497f9722a3daafe3b4186f6b6457e060405160405180910390a35062000286565b600033905090565b8280546200017f9062000221565b90600052602060002090601f016020900481019282620001a35760008555620001ef565b82601f10620001be57805160ff1916838001178555620001ef565b82800160010185558215620001ef579182015b82811115620001ee578251825591602001919060010190620001d1565b5b509050620001fe919062000202565b5090565b5b808211156200021d57600081600090555060010162000203565b5090565b600060028204905060018216806200023a57607f821691505b6020821081141562000251576200025062000257565b5b50919050565b7f4e487b7100000000000000000000000000000000000000000000000000000000600052602260045260246000fd5b61462280620002966000396000f3fe6080604052600436106101b75760003560e01c80635e50c759116100ec578063a22cb4651161008a578063c87b56dd11610064578063c87b56dd14610628578063e985e9c514610665578063f2fde38b146106a2578063fc84afb4146106cb576101b7565b8063a22cb465146105ad578063b88d4fde146105d6578063bd94b005146105ff576101b7565b8063715018a6116100c6578063715018a6146105035780638462151c1461051a5780638da5cb5b1461055757806395d89b4114610582576101b7565b80635e50c7591461044c5780636352211e1461048957806370a08231146104c6576101b7565b806323b872dd1161015957806342842e0e1161013357806342842e0e146103ac5780634f6ccce7146103d557806359afe80e146104125780635d76517a14610430576101b7565b806323b872dd146103095780632abacf8c146103325780632f745c591461036f576101b7565b8063095ea7b311610195578063095ea7b3146102615780630d8da9a61461028a57806318160ddd146102b55780631e832895146102e0576101b7565b806301ffc9a7146101bc57806306fdde03146101f9578063081812fc14610224575b600080fd5b3480156101c857600080fd5b506101e360048036038101906101de91906133a7565b6106e7565b6040516101f09190613e61565b60405180910390f35b34801561020557600080fd5b5061020e6106f9565b60405161021b9190613e7c565b60405180910390f35b34801561023057600080fd5b5061024b60048036038101906102469190613435565b61078b565b6040516102589190613dd8565b60405180910390f35b34801561026d57600080fd5b506102886004803603810190610283919061336b565b610810565b005b34801561029657600080fd5b5061029f610928565b6040516102ac9190613e3f565b60405180910390f35b3480156102c157600080fd5b506102ca610980565b6040516102d79190614139565b60405180910390f35b3480156102ec57600080fd5b506103076004803603810190610302919061345e565b61098d565b005b34801561031557600080fd5b50610330600480360381019061032b9190613265565b610a6e565b005b34801561033e57600080fd5b5061035960048036038101906103549190613435565b610ace565b604051610366919061411e565b60405180910390f35b34801561037b57600080fd5b506103966004803603810190610391919061336b565b610b9b565b6040516103a39190614139565b60405180910390f35b3480156103b857600080fd5b506103d360048036038101906103ce9190613265565b610c40565b005b3480156103e157600080fd5b506103fc60048036038101906103f79190613435565b610c60565b6040516104099190614139565b60405180910390f35b61041a610cf7565b6040516104279190614139565b60405180910390f35b61044a600480360381019061044591906133f9565b610d1a565b005b34801561045857600080fd5b50610473600480360381019061046e9190613200565b610d8f565b6040516104809190614139565b60405180910390f35b34801561049557600080fd5b506104b060048036038101906104ab9190613435565b610dfa565b6040516104bd9190613dd8565b60405180910390f35b3480156104d257600080fd5b506104ed60048036038101906104e89190613200565b610eac565b6040516104fa9190614139565b60405180910390f35b34801561050f57600080fd5b50610518610f64565b005b34801561052657600080fd5b50610541600480360381019061053c9190613200565b6110a1565b60405161054e9190613e3f565b60405180910390f35b34801561056357600080fd5b5061056c61121d565b6040516105799190613dd8565b60405180910390f35b34801561058e57600080fd5b50610597611247565b6040516105a49190613e7c565b60405180910390f35b3480156105b957600080fd5b506105d460048036038101906105cf919061332f565b6112d9565b005b3480156105e257600080fd5b506105fd60048036038101906105f891906132b4565b61145a565b005b34801561060b57600080fd5b5061062660048036038101906106219190613435565b6114bc565b005b34801561063457600080fd5b5061064f600480360381019061064a9190613435565b6115c7565b60405161065c9190613e7c565b60405180910390f35b34801561067157600080fd5b5061068c60048036038101906106879190613229565b6115d9565b6040516106999190613e61565b60405180910390f35b3480156106ae57600080fd5b506106c960048036038101906106c49190613200565b61166d565b005b6106e560048036038101906106e09190613435565b611819565b005b60006106f28261196a565b9050919050565b60606000805461070890614400565b80601f016020809104026020016040519081016040528092919081815260200182805461073490614400565b80156107815780601f1061075657610100808354040283529160200191610781565b820191906000526020600020905b81548152906001019060200180831161076457829003601f168201915b5050505050905090565b6000610796826119e4565b6107d5576040517f08c379a00000000000000000000000000000000000000000000000000000000081526004016107cc9061403e565b60405180910390fd5b6004600083815260200190815260200160002060009054906101000a900473ffffffffffffffffffffffffffffffffffffffff169050919050565b600061081b82610dfa565b90508073ffffffffffffffffffffffffffffffffffffffff168373ffffffffffffffffffffffffffffffffffffffff16141561088c576040517f08c379a0000000000000000000000000000000000000000000000000000000008152600401610883906140be565b60405180910390fd5b8073ffffffffffffffffffffffffffffffffffffffff166108ab611a50565b73ffffffffffffffffffffffffffffffffffffffff1614806108da57506108d9816108d4611a50565b6115d9565b5b610919576040517f08c379a000000000000000000000000000000000000000000000000000000000815260040161091090613f7e565b60405180910390fd5b6109238383611a58565b505050565b6060600e80548060200260200160405190810160405280929190818152602001828054801561097657602002820191906000526020600020905b815481526020019060010190808311610962575b5050505050905090565b6000600980549050905090565b610995611a50565b73ffffffffffffffffffffffffffffffffffffffff166109b361121d565b73ffffffffffffffffffffffffffffffffffffffff1614610a09576040517f08c379a0000000000000000000000000000000000000000000000000000000008152600401610a009061405e565b60405180910390fd5b6040518060400160405280600481526020017f6e6f6e650000000000000000000000000000000000000000000000000000000081525080519060200120610a4f836115c7565b8051906020012014610a6057600080fd5b610a6a8282611b11565b5050565b610a7f610a79611a50565b82611b85565b610abe576040517f08c379a0000000000000000000000000000000000000000000000000000000008152600401610ab5906140de565b60405180910390fd5b610ac9838383611c63565b505050565b610ad6612fcd565b600d60008381526020019081526020016000206040518060400160405290816000820160009054906101000a900473ffffffffffffffffffffffffffffffffffffffff1673ffffffffffffffffffffffffffffffffffffffff1673ffffffffffffffffffffffffffffffffffffffff1681526020016001820160009054906101000a90046fffffffffffffffffffffffffffffffff166fffffffffffffffffffffffffffffffff166fffffffffffffffffffffffffffffffff16815250509050919050565b6000610ba683610eac565b8210610be7576040517f08c379a0000000000000000000000000000000000000000000000000000000008152600401610bde90613e9e565b60405180910390fd5b600760008473ffffffffffffffffffffffffffffffffffffffff1673ffffffffffffffffffffffffffffffffffffffff168152602001908152602001600020600083815260200190815260200160002054905092915050565b610c5b8383836040518060200160405280600081525061145a565b505050565b6000610c6a610980565b8210610cab576040517f08c379a0000000000000000000000000000000000000000000000000000000008152600401610ca2906140fe565b60405180910390fd5b60098281548110610ce5577f4e487b7100000000000000000000000000000000000000000000000000000000600052603260045260246000fd5b90600052602060002001549050919050565b600066470de4df8200003414610d0c57600080fd5b610d1533610d8f565b905090565b66470de4df8200003414610d2d57600080fd5b610d3681610dfa565b73ffffffffffffffffffffffffffffffffffffffff163373ffffffffffffffffffffffffffffffffffffffff1614610d6d57600080fd5b610d7681611ebf565b15610d8057600080fd5b610d8b338383611f48565b5050565b600080610d9c600c61204f565b9050610da8838261205d565b610de7816040518060400160405280600481526020017f6e6f6e6500000000000000000000000000000000000000000000000000000000815250611b11565b610df1600c61222b565b80915050919050565b6000806002600084815260200190815260200160002060009054906101000a900473ffffffffffffffffffffffffffffffffffffffff169050600073ffffffffffffffffffffffffffffffffffffffff168173ffffffffffffffffffffffffffffffffffffffff161415610ea3576040517f08c379a0000000000000000000000000000000000000000000000000000000008152600401610e9a90613fbe565b60405180910390fd5b80915050919050565b60008073ffffffffffffffffffffffffffffffffffffffff168273ffffffffffffffffffffffffffffffffffffffff161415610f1d576040517f08c379a0000000000000000000000000000000000000000000000000000000008152600401610f1490613f9e565b60405180910390fd5b600360008373ffffffffffffffffffffffffffffffffffffffff1673ffffffffffffffffffffffffffffffffffffffff168152602001908152602001600020549050919050565b610f6c611a50565b73ffffffffffffffffffffffffffffffffffffffff16610f8a61121d565b73ffffffffffffffffffffffffffffffffffffffff1614610fe0576040517f08c379a0000000000000000000000000000000000000000000000000000000008152600401610fd79061405e565b60405180910390fd5b600073ffffffffffffffffffffffffffffffffffffffff16600b60009054906101000a900473ffffffffffffffffffffffffffffffffffffffff1673ffffffffffffffffffffffffffffffffffffffff167f8be0079c531659141344cd1fd0a4f28419497f9722a3daafe3b4186f6b6457e060405160405180910390a36000600b60006101000a81548173ffffffffffffffffffffffffffffffffffffffff021916908373ffffffffffffffffffffffffffffffffffffffff160217905550565b606060006110ae33610eac565b9050600081141561113157600067ffffffffffffffff8111156110fa577f4e487b7100000000000000000000000000000000000000000000000000000000600052604160045260246000fd5b6040519080825280602002602001820160405280156111285781602001602082028036833780820191505090505b50915050611218565b60008167ffffffffffffffff811115611173577f4e487b7100000000000000000000000000000000000000000000000000000000600052604160045260246000fd5b6040519080825280602002602001820160405280156111a15781602001602082028036833780820191505090505b50905060005b82811015611211576111b98582610b9b565b8282815181106111f2577f4e487b7100000000000000000000000000000000000000000000000000000000600052603260045260246000fd5b602002602001018181525050808061120990614432565b9150506111a7565b5080925050505b919050565b6000600b60009054906101000a900473ffffffffffffffffffffffffffffffffffffffff16905090565b60606001805461125690614400565b80601f016020809104026020016040519081016040528092919081815260200182805461128290614400565b80156112cf5780601f106112a4576101008083540402835291602001916112cf565b820191906000526020600020905b8154815290600101906020018083116112b257829003601f168201915b5050505050905090565b6112e1611a50565b73ffffffffffffffffffffffffffffffffffffffff168273ffffffffffffffffffffffffffffffffffffffff16141561134f576040517f08c379a000000000000000000000000000000000000000000000000000000000815260040161134690613f3e565b60405180910390fd5b806005600061135c611a50565b73ffffffffffffffffffffffffffffffffffffffff1673ffffffffffffffffffffffffffffffffffffffff16815260200190815260200160002060008473ffffffffffffffffffffffffffffffffffffffff1673ffffffffffffffffffffffffffffffffffffffff16815260200190815260200160002060006101000a81548160ff0219169083151502179055508173ffffffffffffffffffffffffffffffffffffffff16611409611a50565b73ffffffffffffffffffffffffffffffffffffffff167f17307eab39ab6107e8899845ad3d59bd9653f200f220920489ca2b5937696c318360405161144e9190613e61565b60405180910390a35050565b61146b611465611a50565b83611b85565b6114aa576040517f08c379a00000000000000000000000000000000000000000000000000000000081526004016114a1906140de565b60405180910390fd5b6114b684848484612241565b50505050565b6000600d60008381526020019081526020016000206040518060400160405290816000820160009054906101000a900473ffffffffffffffffffffffffffffffffffffffff1673ffffffffffffffffffffffffffffffffffffffff1673ffffffffffffffffffffffffffffffffffffffff1681526020016001820160009054906101000a90046fffffffffffffffffffffffffffffffff166fffffffffffffffffffffffffffffffff166fffffffffffffffffffffffffffffffff168152505090503373ffffffffffffffffffffffffffffffffffffffff16816000015173ffffffffffffffffffffffffffffffffffffffff16146115ba57600080fd5b6115c38261229d565b5050565b60606115d28261237e565b9050919050565b6000600560008473ffffffffffffffffffffffffffffffffffffffff1673ffffffffffffffffffffffffffffffffffffffff16815260200190815260200160002060008373ffffffffffffffffffffffffffffffffffffffff1673ffffffffffffffffffffffffffffffffffffffff16815260200190815260200160002060009054906101000a900460ff16905092915050565b611675611a50565b73ffffffffffffffffffffffffffffffffffffffff1661169361121d565b73ffffffffffffffffffffffffffffffffffffffff16146116e9576040517f08c379a00000000000000000000000000000000000000000000000000000000081526004016116e09061405e565b60405180910390fd5b600073ffffffffffffffffffffffffffffffffffffffff168173ffffffffffffffffffffffffffffffffffffffff161415611759576040517f08c379a000000000000000000000000000000000000000000000000000000000815260040161175090613ede565b60405180910390fd5b8073ffffffffffffffffffffffffffffffffffffffff16600b60009054906101000a900473ffffffffffffffffffffffffffffffffffffffff1673ffffffffffffffffffffffffffffffffffffffff167f8be0079c531659141344cd1fd0a4f28419497f9722a3daafe3b4186f6b6457e060405160405180910390a380600b60006101000a81548173ffffffffffffffffffffffffffffffffffffffff021916908373ffffffffffffffffffffffffffffffffffffffff16021790555050565b6000600d60008381526020019081526020016000206040518060400160405290816000820160009054906101000a900473ffffffffffffffffffffffffffffffffffffffff1673ffffffffffffffffffffffffffffffffffffffff1673ffffffffffffffffffffffffffffffffffffffff1681526020016001820160009054906101000a90046fffffffffffffffffffffffffffffffff166fffffffffffffffffffffffffffffffff166fffffffffffffffffffffffffffffffff16815250509050600081602001516fffffffffffffffffffffffffffffffff16905080341461190257600080fd5b816000015173ffffffffffffffffffffffffffffffffffffffff166108fc829081150290604051600060405180830381858888f1935050505015801561194c573d6000803e3d6000fd5b5061195c82600001513385611c63565b6119658361229d565b505050565b60007f780e9d63000000000000000000000000000000000000000000000000000000007bffffffffffffffffffffffffffffffffffffffffffffffffffffffff1916827bffffffffffffffffffffffffffffffffffffffffffffffffffffffff191614806119dd57506119dc826124d0565b5b9050919050565b60008073ffffffffffffffffffffffffffffffffffffffff166002600084815260200190815260200160002060009054906101000a900473ffffffffffffffffffffffffffffffffffffffff1673ffffffffffffffffffffffffffffffffffffffff1614159050919050565b600033905090565b816004600083815260200190815260200160002060006101000a81548173ffffffffffffffffffffffffffffffffffffffff021916908373ffffffffffffffffffffffffffffffffffffffff160217905550808273ffffffffffffffffffffffffffffffffffffffff16611acb83610dfa565b73ffffffffffffffffffffffffffffffffffffffff167f8c5be1e5ebec7d5bd14f71427d1e84f3dd0314c0f7b2291e5b200ac8c7c3b92560405160405180910390a45050565b611b1a826119e4565b611b59576040517f08c379a0000000000000000000000000000000000000000000000000000000008152600401611b5090613fde565b60405180910390fd5b80600660008481526020019081526020016000209080519060200190611b8092919061300f565b505050565b6000611b90826119e4565b611bcf576040517f08c379a0000000000000000000000000000000000000000000000000000000008152600401611bc690613f5e565b60405180910390fd5b6000611bda83610dfa565b90508073ffffffffffffffffffffffffffffffffffffffff168473ffffffffffffffffffffffffffffffffffffffff161480611c4957508373ffffffffffffffffffffffffffffffffffffffff16611c318461078b565b73ffffffffffffffffffffffffffffffffffffffff16145b80611c5a5750611c5981856115d9565b5b91505092915050565b8273ffffffffffffffffffffffffffffffffffffffff16611c8382610dfa565b73ffffffffffffffffffffffffffffffffffffffff1614611cd9576040517f08c379a0000000000000000000000000000000000000000000000000000000008152600401611cd09061407e565b60405180910390fd5b600073ffffffffffffffffffffffffffffffffffffffff168273ffffffffffffffffffffffffffffffffffffffff161415611d49576040517f08c379a0000000000000000000000000000000000000000000000000000000008152600401611d4090613f1e565b60405180910390fd5b611d548383836125b2565b611d5f600082611a58565b6001600360008573ffffffffffffffffffffffffffffffffffffffff1673ffffffffffffffffffffffffffffffffffffffff1681526020019081526020016000206000828254611daf91906142e8565b925050819055506001600360008473ffffffffffffffffffffffffffffffffffffffff1673ffffffffffffffffffffffffffffffffffffffff1681526020019081526020016000206000828254611e069190614261565b92505081905550816002600083815260200190815260200160002060006101000a81548173ffffffffffffffffffffffffffffffffffffffff021916908373ffffffffffffffffffffffffffffffffffffffff160217905550808273ffffffffffffffffffffffffffffffffffffffff168473ffffffffffffffffffffffffffffffffffffffff167fddf252ad1be2c89b69c2b068fc378daa952ba7f163c4a11628f55a4df523b3ef60405160405180910390a4505050565b600080600090505b600e80549050811015611f3d5782600e8281548110611f0f577f4e487b7100000000000000000000000000000000000000000000000000000000600052603260045260246000fd5b90600052602060002001541415611f2a576001915050611f43565b8080611f3590614432565b915050611ec7565b50600090505b919050565b60405180604001604052808473ffffffffffffffffffffffffffffffffffffffff168152602001836fffffffffffffffffffffffffffffffff16815250600d600083815260200190815260200160002060008201518160000160006101000a81548173ffffffffffffffffffffffffffffffffffffffff021916908373ffffffffffffffffffffffffffffffffffffffff16021790555060208201518160010160006101000a8154816fffffffffffffffffffffffffffffffff02191690836fffffffffffffffffffffffffffffffff160217905550905050600e819080600181540180825580915050600190039060005260206000200160009091909190915055505050565b600081600001549050919050565b600073ffffffffffffffffffffffffffffffffffffffff168273ffffffffffffffffffffffffffffffffffffffff1614156120cd576040517f08c379a00000000000000000000000000000000000000000000000000000000081526004016120c490613ffe565b60405180910390fd5b6120d6816119e4565b15612116576040517f08c379a000000000000000000000000000000000000000000000000000000000815260040161210d90613efe565b60405180910390fd5b612122600083836125b2565b6001600360008473ffffffffffffffffffffffffffffffffffffffff1673ffffffffffffffffffffffffffffffffffffffff16815260200190815260200160002060008282546121729190614261565b92505081905550816002600083815260200190815260200160002060006101000a81548173ffffffffffffffffffffffffffffffffffffffff021916908373ffffffffffffffffffffffffffffffffffffffff160217905550808273ffffffffffffffffffffffffffffffffffffffff16600073ffffffffffffffffffffffffffffffffffffffff167fddf252ad1be2c89b69c2b068fc378daa952ba7f163c4a11628f55a4df523b3ef60405160405180910390a45050565b6001816000016000828254019250508190555050565b61224c848484611c63565b612258848484846125c2565b612297576040517f08c379a000000000000000000000000000000000000000000000000000000000815260040161228e90613ebe565b60405180910390fd5b50505050565b600d6000828152602001908152602001600020600080820160006101000a81549073ffffffffffffffffffffffffffffffffffffffff02191690556001820160006101000a8154906fffffffffffffffffffffffffffffffff0219169055505060005b600e8054905081101561237a5781600e8281548110612348577f4e487b7100000000000000000000000000000000000000000000000000000000600052603260045260246000fd5b906000526020600020015414156123675761236281612759565b61237a565b808061237290614432565b915050612300565b5050565b6060612389826119e4565b6123c8576040517f08c379a00000000000000000000000000000000000000000000000000000000081526004016123bf9061401e565b60405180910390fd5b60006006600084815260200190815260200160002080546123e890614400565b80601f016020809104026020016040519081016040528092919081815260200182805461241490614400565b80156124615780601f1061243657610100808354040283529160200191612461565b820191906000526020600020905b81548152906001019060200180831161244457829003601f168201915b505050505090506000612472612854565b90506000815114156124885781925050506124cb565b6000825111156124bd5780826040516020016124a5929190613db4565b604051602081830303815290604052925050506124cb565b6124c68461286b565b925050505b919050565b60007f80ac58cd000000000000000000000000000000000000000000000000000000007bffffffffffffffffffffffffffffffffffffffffffffffffffffffff1916827bffffffffffffffffffffffffffffffffffffffffffffffffffffffff1916148061259b57507f5b5e139f000000000000000000000000000000000000000000000000000000007bffffffffffffffffffffffffffffffffffffffffffffffffffffffff1916827bffffffffffffffffffffffffffffffffffffffffffffffffffffffff1916145b806125ab57506125aa82612912565b5b9050919050565b6125bd83838361297c565b505050565b60006125e38473ffffffffffffffffffffffffffffffffffffffff16612a90565b1561274c578373ffffffffffffffffffffffffffffffffffffffff1663150b7a0261260c611a50565b8786866040518563ffffffff1660e01b815260040161262e9493929190613df3565b602060405180830381600087803b15801561264857600080fd5b505af192505050801561267957506040513d601f19601f8201168201806040525081019061267691906133d0565b60015b6126fc573d80600081146126a9576040519150601f19603f3d011682016040523d82523d6000602084013e6126ae565b606091505b506000815114156126f4576040517f08c379a00000000000000000000000000000000000000000000000000000000081526004016126eb90613ebe565b60405180910390fd5b805181602001fd5b63150b7a0260e01b7bffffffffffffffffffffffffffffffffffffffffffffffffffffffff1916817bffffffffffffffffffffffffffffffffffffffffffffffffffffffff191614915050612751565b600190505b949350505050565b60006001600e8054905061276d91906142e8565b90506000600e82815481106127ab577f4e487b7100000000000000000000000000000000000000000000000000000000600052603260045260246000fd5b9060005260206000200154905080600e84815481106127f3577f4e487b7100000000000000000000000000000000000000000000000000000000600052603260045260246000fd5b9060005260206000200181905550600e805480612839577f4e487b7100000000000000000000000000000000000000000000000000000000600052603160045260246000fd5b60019003818190600052602060002001600090559055505050565b606060405180602001604052806000815250905090565b6060612876826119e4565b6128b5576040517f08c379a00000000000000000000000000000000000000000000000000000000081526004016128ac9061409e565b60405180910390fd5b60006128bf612854565b905060008151116128df576040518060200160405280600081525061290a565b806128e984612aa3565b6040516020016128fa929190613db4565b6040516020818303038152906040525b915050919050565b60007f01ffc9a7000000000000000000000000000000000000000000000000000000007bffffffffffffffffffffffffffffffffffffffffffffffffffffffff1916827bffffffffffffffffffffffffffffffffffffffffffffffffffffffff1916149050919050565b612987838383612c50565b600073ffffffffffffffffffffffffffffffffffffffff168373ffffffffffffffffffffffffffffffffffffffff1614156129ca576129c581612c55565b612a09565b8173ffffffffffffffffffffffffffffffffffffffff168373ffffffffffffffffffffffffffffffffffffffff1614612a0857612a078382612c9e565b5b5b600073ffffffffffffffffffffffffffffffffffffffff168273ffffffffffffffffffffffffffffffffffffffff161415612a4c57612a4781612e0b565b612a8b565b8273ffffffffffffffffffffffffffffffffffffffff168273ffffffffffffffffffffffffffffffffffffffff1614612a8a57612a898282612f4e565b5b5b505050565b600080823b905060008111915050919050565b60606000821415612aeb576040518060400160405280600181526020017f30000000000000000000000000000000000000000000000000000000000000008152509050612c4b565b600082905060005b60008214612b1d578080612b0690614432565b915050600a82612b1691906142b7565b9150612af3565b60008167ffffffffffffffff811115612b5f577f4e487b7100000000000000000000000000000000000000000000000000000000600052604160045260246000fd5b6040519080825280601f01601f191660200182016040528015612b915781602001600182028036833780820191505090505b5090505b60008514612c4457600182612baa91906142e8565b9150600a85612bb9919061447b565b6030612bc59190614261565b60f81b818381518110612c01577f4e487b7100000000000000000000000000000000000000000000000000000000600052603260045260246000fd5b60200101907effffffffffffffffffffffffffffffffffffffffffffffffffffffffffffff1916908160001a905350600a85612c3d91906142b7565b9450612b95565b8093505050505b919050565b505050565b600980549050600a600083815260200190815260200160002081905550600981908060018154018082558091505060019003906000526020600020016000909190919091505550565b60006001612cab84610eac565b612cb591906142e8565b9050600060086000848152602001908152602001600020549050818114612d9a576000600760008673ffffffffffffffffffffffffffffffffffffffff1673ffffffffffffffffffffffffffffffffffffffff168152602001908152602001600020600084815260200190815260200160002054905080600760008773ffffffffffffffffffffffffffffffffffffffff1673ffffffffffffffffffffffffffffffffffffffff168152602001908152602001600020600084815260200190815260200160002081905550816008600083815260200190815260200160002081905550505b6008600084815260200190815260200160002060009055600760008573ffffffffffffffffffffffffffffffffffffffff1673ffffffffffffffffffffffffffffffffffffffff16815260200190815260200160002060008381526020019081526020016000206000905550505050565b60006001600980549050612e1f91906142e8565b90506000600a6000848152602001908152602001600020549050600060098381548110612e75577f4e487b7100000000000000000000000000000000000000000000000000000000600052603260045260246000fd5b906000526020600020015490508060098381548110612ebd577f4e487b7100000000000000000000000000000000000000000000000000000000600052603260045260246000fd5b906000526020600020018190555081600a600083815260200190815260200160002081905550600a6000858152602001908152602001600020600090556009805480612f32577f4e487b7100000000000000000000000000000000000000000000000000000000600052603160045260246000fd5b6001900381819060005260206000200160009055905550505050565b6000612f5983610eac565b905081600760008573ffffffffffffffffffffffffffffffffffffffff1673ffffffffffffffffffffffffffffffffffffffff168152602001908152602001600020600083815260200190815260200160002081905550806008600084815260200190815260200160002081905550505050565b6040518060400160405280600073ffffffffffffffffffffffffffffffffffffffff16815260200160006fffffffffffffffffffffffffffffffff1681525090565b82805461301b90614400565b90600052602060002090601f01602090048101928261303d5760008555613084565b82601f1061305657805160ff1916838001178555613084565b82800160010185558215613084579182015b82811115613083578251825591602001919060010190613068565b5b5090506130919190613095565b5090565b5b808211156130ae576000816000905550600101613096565b5090565b60006130c56130c084614185565b614154565b9050828152602081018484840111156130dd57600080fd5b6130e88482856143be565b509392505050565b60006131036130fe846141b5565b614154565b90508281526020810184848401111561311b57600080fd5b6131268482856143be565b509392505050565b60008135905061313d81614579565b92915050565b60008135905061315281614590565b92915050565b600081359050613167816145a7565b92915050565b60008151905061317c816145a7565b92915050565b600082601f83011261319357600080fd5b81356131a38482602086016130b2565b91505092915050565b600082601f8301126131bd57600080fd5b81356131cd8482602086016130f0565b91505092915050565b6000813590506131e5816145be565b92915050565b6000813590506131fa816145d5565b92915050565b60006020828403121561321257600080fd5b60006132208482850161312e565b91505092915050565b6000806040838503121561323c57600080fd5b600061324a8582860161312e565b925050602061325b8582860161312e565b9150509250929050565b60008060006060848603121561327a57600080fd5b60006132888682870161312e565b93505060206132998682870161312e565b92505060406132aa868287016131eb565b9150509250925092565b600080600080608085870312156132ca57600080fd5b60006132d88782880161312e565b94505060206132e98782880161312e565b93505060406132fa878288016131eb565b925050606085013567ffffffffffffffff81111561331757600080fd5b61332387828801613182565b91505092959194509250565b6000806040838503121561334257600080fd5b60006133508582860161312e565b925050602061336185828601613143565b9150509250929050565b6000806040838503121561337e57600080fd5b600061338c8582860161312e565b925050602061339d858286016131eb565b9150509250929050565b6000602082840312156133b957600080fd5b60006133c784828501613158565b91505092915050565b6000602082840312156133e257600080fd5b60006133f08482850161316d565b91505092915050565b6000806040838503121561340c57600080fd5b600061341a858286016131d6565b925050602061342b858286016131eb565b9150509250929050565b60006020828403121561344757600080fd5b6000613455848285016131eb565b91505092915050565b6000806040838503121561347157600080fd5b600061347f858286016131eb565b925050602083013567ffffffffffffffff81111561349c57600080fd5b6134a8858286016131ac565b9150509250929050565b60006134be8383613d96565b60208301905092915050565b6134d38161432e565b82525050565b6134e28161431c565b82525050565b60006134f3826141f5565b6134fd8185614223565b9350613508836141e5565b8060005b8381101561353957815161352088826134b2565b975061352b83614216565b92505060018101905061350c565b5085935050505092915050565b61354f81614340565b82525050565b600061356082614200565b61356a8185614234565b935061357a8185602086016143cd565b61358381614568565b840191505092915050565b60006135998261420b565b6135a38185614245565b93506135b38185602086016143cd565b6135bc81614568565b840191505092915050565b60006135d28261420b565b6135dc8185614256565b93506135ec8185602086016143cd565b80840191505092915050565b6000613605602b83614245565b91507f455243373231456e756d657261626c653a206f776e657220696e646578206f7560008301527f74206f6620626f756e64730000000000000000000000000000000000000000006020830152604082019050919050565b600061366b603283614245565b91507f4552433732313a207472616e7366657220746f206e6f6e20455243373231526560008301527f63656976657220696d706c656d656e74657200000000000000000000000000006020830152604082019050919050565b60006136d1602683614245565b91507f4f776e61626c653a206e6577206f776e657220697320746865207a65726f206160008301527f64647265737300000000000000000000000000000000000000000000000000006020830152604082019050919050565b6000613737601c83614245565b91507f4552433732313a20746f6b656e20616c7265616479206d696e746564000000006000830152602082019050919050565b6000613777602483614245565b91507f4552433732313a207472616e7366657220746f20746865207a65726f2061646460008301527f72657373000000000000000000000000000000000000000000000000000000006020830152604082019050919050565b60006137dd601983614245565b91507f4552433732313a20617070726f766520746f2063616c6c6572000000000000006000830152602082019050919050565b600061381d602c83614245565b91507f4552433732313a206f70657261746f7220717565727920666f72206e6f6e657860008301527f697374656e7420746f6b656e00000000000000000000000000000000000000006020830152604082019050919050565b6000613883603883614245565b91507f4552433732313a20617070726f76652063616c6c6572206973206e6f74206f7760008301527f6e6572206e6f7220617070726f76656420666f7220616c6c00000000000000006020830152604082019050919050565b60006138e9602a83614245565b91507f4552433732313a2062616c616e636520717565727920666f7220746865207a6560008301527f726f2061646472657373000000000000000000000000000000000000000000006020830152604082019050919050565b600061394f602983614245565b91507f4552433732313a206f776e657220717565727920666f72206e6f6e657869737460008301527f656e7420746f6b656e00000000000000000000000000000000000000000000006020830152604082019050919050565b60006139b5602e83614245565b91507f45524337323155524953746f726167653a2055524920736574206f66206e6f6e60008301527f6578697374656e7420746f6b656e0000000000000000000000000000000000006020830152604082019050919050565b6000613a1b602083614245565b91507f4552433732313a206d696e7420746f20746865207a65726f20616464726573736000830152602082019050919050565b6000613a5b603183614245565b91507f45524337323155524953746f726167653a2055524920717565727920666f722060008301527f6e6f6e6578697374656e7420746f6b656e0000000000000000000000000000006020830152604082019050919050565b6000613ac1602c83614245565b91507f4552433732313a20617070726f76656420717565727920666f72206e6f6e657860008301527f697374656e7420746f6b656e00000000000000000000000000000000000000006020830152604082019050919050565b6000613b27602083614245565b91507f4f776e61626c653a2063616c6c6572206973206e6f7420746865206f776e65726000830152602082019050919050565b6000613b67602983614245565b91507f4552433732313a207472616e73666572206f6620746f6b656e2074686174206960008301527f73206e6f74206f776e00000000000000000000000000000000000000000000006020830152604082019050919050565b6000613bcd602f83614245565b91507f4552433732314d657461646174613a2055524920717565727920666f72206e6f60008301527f6e6578697374656e7420746f6b656e00000000000000000000000000000000006020830152604082019050919050565b6000613c33602183614245565b91507f4552433732313a20617070726f76616c20746f2063757272656e74206f776e6560008301527f72000000000000000000000000000000000000000000000000000000000000006020830152604082019050919050565b6000613c99603183614245565b91507f4552433732313a207472616e736665722063616c6c6572206973206e6f74206f60008301527f776e6572206e6f7220617070726f7665640000000000000000000000000000006020830152604082019050919050565b6000613cff602c83614245565b91507f455243373231456e756d657261626c653a20676c6f62616c20696e646578206f60008301527f7574206f6620626f756e647300000000000000000000000000000000000000006020830152604082019050919050565b604082016000820151613d6e60008501826134ca565b506020820151613d816020850182613d87565b50505050565b613d9081614378565b82525050565b613d9f816143b4565b82525050565b613dae816143b4565b82525050565b6000613dc082856135c7565b9150613dcc82846135c7565b91508190509392505050565b6000602082019050613ded60008301846134d9565b92915050565b6000608082019050613e0860008301876134d9565b613e1560208301866134d9565b613e226040830185613da5565b8181036060830152613e348184613555565b905095945050505050565b60006020820190508181036000830152613e5981846134e8565b905092915050565b6000602082019050613e766000830184613546565b92915050565b60006020820190508181036000830152613e96818461358e565b905092915050565b60006020820190508181036000830152613eb7816135f8565b9050919050565b60006020820190508181036000830152613ed78161365e565b9050919050565b60006020820190508181036000830152613ef7816136c4565b9050919050565b60006020820190508181036000830152613f178161372a565b9050919050565b60006020820190508181036000830152613f378161376a565b9050919050565b60006020820190508181036000830152613f57816137d0565b9050919050565b60006020820190508181036000830152613f7781613810565b9050919050565b60006020820190508181036000830152613f9781613876565b9050919050565b60006020820190508181036000830152613fb7816138dc565b9050919050565b60006020820190508181036000830152613fd781613942565b9050919050565b60006020820190508181036000830152613ff7816139a8565b9050919050565b6000602082019050818103600083015261401781613a0e565b9050919050565b6000602082019050818103600083015261403781613a4e565b9050919050565b6000602082019050818103600083015261405781613ab4565b9050919050565b6000602082019050818103600083015261407781613b1a565b9050919050565b6000602082019050818103600083015261409781613b5a565b9050919050565b600060208201905081810360008301526140b781613bc0565b9050919050565b600060208201905081810360008301526140d781613c26565b9050919050565b600060208201905081810360008301526140f781613c8c565b9050919050565b6000602082019050818103600083015261411781613cf2565b9050919050565b60006040820190506141336000830184613d58565b92915050565b600060208201905061414e6000830184613da5565b92915050565b6000604051905081810181811067ffffffffffffffff8211171561417b5761417a614539565b5b8060405250919050565b600067ffffffffffffffff8211156141a05761419f614539565b5b601f19601f8301169050602081019050919050565b600067ffffffffffffffff8211156141d0576141cf614539565b5b601f19601f8301169050602081019050919050565b6000819050602082019050919050565b600081519050919050565b600081519050919050565b600081519050919050565b6000602082019050919050565b600082825260208201905092915050565b600082825260208201905092915050565b600082825260208201905092915050565b600081905092915050565b600061426c826143b4565b9150614277836143b4565b9250827fffffffffffffffffffffffffffffffffffffffffffffffffffffffffffffffff038211156142ac576142ab6144ac565b5b828201905092915050565b60006142c2826143b4565b91506142cd836143b4565b9250826142dd576142dc6144db565b5b828204905092915050565b60006142f3826143b4565b91506142fe836143b4565b925082821015614311576143106144ac565b5b828203905092915050565b600061432782614394565b9050919050565b600061433982614394565b9050919050565b60008115159050919050565b60007fffffffff0000000000000000000000000000000000000000000000000000000082169050919050565b60006fffffffffffffffffffffffffffffffff82169050919050565b600073ffffffffffffffffffffffffffffffffffffffff82169050919050565b6000819050919050565b82818337600083830152505050565b60005b838110156143eb5780820151818401526020810190506143d0565b838111156143fa576000848401525b50505050565b6000600282049050600182168061441857607f821691505b6020821081141561442c5761442b61450a565b5b50919050565b600061443d826143b4565b91507fffffffffffffffffffffffffffffffffffffffffffffffffffffffffffffffff8214156144705761446f6144ac565b5b600182019050919050565b6000614486826143b4565b9150614491836143b4565b9250826144a1576144a06144db565b5b828206905092915050565b7f4e487b7100000000000000000000000000000000000000000000000000000000600052601160045260246000fd5b7f4e487b7100000000000000000000000000000000000000000000000000000000600052601260045260246000fd5b7f4e487b7100000000000000000000000000000000000000000000000000000000600052602260045260246000fd5b7f4e487b7100000000000000000000000000000000000000000000000000000000600052604160045260246000fd5b6000601f19601f8301169050919050565b6145828161431c565b811461458d57600080fd5b50565b61459981614340565b81146145a457600080fd5b50565b6145b08161434c565b81146145bb57600080fd5b50565b6145c781614378565b81146145d257600080fd5b50565b6145de816143b4565b81146145e957600080fd5b5056fea26469706673582212200fd7fa0d5d71ea42fadc1877335738de12ce5ac62d782bb6214dbbb5a6acac3e64736f6c63430008000033",
  "linkReferences": {},
  "deployedLinkReferences": {}
}